{
  "address": "0x1613beB3B2C4f22Ee086B2b38C1476A3cE7f78E8",
  "abi": [
    {
      "inputs": [
        {
          "internalType": "address",
          "name": "user",
          "type": "address"
        }
      ],
      "name": "getCount",
      "outputs": [
        {
          "internalType": "int256",
          "name": "",
          "type": "int256"
        }
      ],
      "stateMutability": "view",
      "type": "function"
    },
    {
      "inputs": [],
      "name": "incrementCounter",
      "outputs": [],
      "stateMutability": "nonpayable",
      "type": "function"
    }
  ],
  "transactionHash": "0x1b739d5ef0b94b89507b9c1d2b6e4e2be1b17914a8a6c7886d5486749f72e4c7",
  "args": [],
  "numDeployments": 1,
  "solcInputHash": "f7ce6fe57d9ea2297ca26ad2dcf759b1",
  "bytecode": "0x608060405234801561001057600080fd5b506102c9806100206000396000f3fe608060405234801561001057600080fd5b50600436106100365760003560e01c80634f0cd27b1461003b5780635b34b9661461006b575b600080fd5b6100556004803603810190610050919061012a565b610075565b6040516100629190610162565b60405180910390f35b6100736100bd565b005b60008060008373ffffffffffffffffffffffffffffffffffffffff1673ffffffffffffffffffffffffffffffffffffffff168152602001908152602001600020549050919050565b60016000803373ffffffffffffffffffffffffffffffffffffffff1673ffffffffffffffffffffffffffffffffffffffff168152602001908152602001600020600082825461010c919061017d565b92505081905550565b6000813590506101248161027c565b92915050565b60006020828403121561013c57600080fd5b600061014a84828501610115565b91505092915050565b61015c81610223565b82525050565b60006020820190506101776000830184610153565b92915050565b600061018882610223565b915061019383610223565b9250817f7fffffffffffffffffffffffffffffffffffffffffffffffffffffffffffffff038313600083121516156101ce576101cd61024d565b5b817f80000000000000000000000000000000000000000000000000000000000000000383126000831216156102065761020561024d565b5b828201905092915050565b600061021c8261022d565b9050919050565b6000819050919050565b600073ffffffffffffffffffffffffffffffffffffffff82169050919050565b7f4e487b7100000000000000000000000000000000000000000000000000000000600052601160045260246000fd5b61028581610211565b811461029057600080fd5b5056fea2646970667358221220fd724f818b687087427183680cc9caff35ececbfa471c7405dd114041bc1f8d064736f6c63430008040033",
  "devdoc": {
    "kind": "dev",
    "methods": {},
    "version": 1
  },
  "userdoc": {
    "kind": "user",
    "methods": {},
    "version": 1
  },
  "storageLayout": {
    "storage": [
      {
        "astId": 5,
        "contract": "contracts/Counter.sol:Counter",
        "label": "count",
        "offset": 0,
        "slot": "0",
        "type": "t_mapping(t_address,t_int256)"
      }
    ],
    "types": {
      "t_address": {
        "encoding": "inplace",
        "label": "address",
        "numberOfBytes": "20"
      },
      "t_int256": {
        "encoding": "inplace",
        "label": "int256",
        "numberOfBytes": "32"
      },
      "t_mapping(t_address,t_int256)": {
        "encoding": "mapping",
        "key": "t_address",
        "label": "mapping(address => int256)",
        "numberOfBytes": "32",
        "value": "t_int256"
      }
    }
  }
}